:10000000E829002099140000951400006D140000E8
:1000100000000000000000000000000000000000E0
:100020000000000000000000000000009514000027
:100030000000000000000000951400004D180000B2
:10004000951400009514000095140000951400000C
:10005000951400009514000095140000950D000003
:10006000A50D0000B50D0000C50D0000D50D000068
:10007000E50D0000B5080000C5080000D508000027
:10008000E5080000F508000005090000150900005A
:1000900025090000F50D00009514000095140000DE
:1000A0009514000008B5064B064803331B1A062BAF
:1000B00000D808BD044B002BFBD09847F9E7C04699
:1000C000DC7C0000DC7C00000000000008B5074874
:1000D000074B1B1A9B10DA0FD318591000D108BD1B
:1000E000044A002AFBD09047F9E7C046DC7C0000B8
:1000F000DC7C00000000000010B5074C2378002BCA
:1001000009D1FFF7CFFF054B002B02D0044800E0D8
:1001100000BF0123237010BDC408002000000000B0
:10012000DC7C000008B5094B002B03D008480949C6
:1001300000E000BF08480368002B03D0074B002BEA
:1001400000D09847FFF7C2FF08BDC046000000007E
:10015000DC7C0000C8080020DC7C000000000000FF
:10016000F0B55F4656464D464446F0B499B0061C7D
:10017000141C0160C84B186A8022520202431A62A2
:100180000B680520DA0700D5FBE10B681C209D07F2
:1001900000D5F6E1637833710023B360F360336117
:1001A000B376F37633833377BC4B1E602A23E35C4C
:1001B000002B05D1237D002B02D10123737701E0B1
:1001C00000237377B64B1B681B041B0F0193356824
:1001D0000095237868460372172002A9B14B98470F
:1001E0001720B14B98472C23E35C002B49D02B22DE
:1001F000A55C217B4A19D2B2D318DBB299469A4248
:1002000029D2AA4A9346AA4B9A46331C4E46221C30
:100210000C1C904699460F272F404046037BFF1841
:1002200004A859465022D047132F0CD8BF0004AB66
:10023000F85803A900234B70CB708B7001230B700F
:10024000C0B29C4A90470135EDB26319DBB29E42C1
:10025000E1D84E464446E58904A894495022944B7F
:100260009847132D37D8AD0004ABE85803A90023F5
:100270004B70CB708B7001230B70C0B28D4B9847C5
:1002800029E0257B04A889495022894B9847132DE2
:100290000CD8AD0004ABE85803A900234B70CB7019
:1002A0008B7001230B70C0B2824B9847E58904A87C
:1002B0007E4950227E4B9847132D0CD8AD0004ABDD
:1002C000E85803A900234B70CB708B7001230B708F
:1002D000C0B2784B9847637D9B00DBB2009D2B70CA
:1002E000A37DDB0162781343DBB26B702379342B7F
:1002F00000D945E19B00704AD3589F460222102541
:10030000012328E0637C227C102524E0019D022D3E
:100310001AD80622102503231DE0019D022D17D8AF
:1003200008221025042316E000223025002312E0C5
:100330000022202500230EE00022002500230AE0F1
:1003400004221025022306E006221025012302E0E4
:100350000822102500231B0170210B401343009835
:100360008370E37D17203F2B00D90AE10099CB7001
:10037000326893691804FCD4E27C63881343242216
:10038000A25CD2001343227D92001343A27C520050
:1003900013432B4300998B80237E002B01D13168BE
:1003A00094E0102D5AD002D8002D38D0F7E7202D38
:1003B00019D0302DF3D1E27C002A0AD0E2698032D4
:1003C0001720FF2A00D9DCE0226A8032FF2A00D9F8
:1003D000D7E01720E269FF2A00DDD2E0256AFF2D71
:1003E00000DDCEE0DBE7E27C002A0DD0E069802270
:1003F000920081181720314A914200D9C1E0304A59
:10040000256A954200DBBCE017202C4AE169914245
:1004100000DDB6E0256A954200DDB2E0BFE7E27C90
:10042000002A10D0E0698022120181181720254A85
:10043000914200D9A5E0256A8020000129181720E3
:10044000914200D99DE017201E4AE169914200DDEA
:1004500097E0256A954200DD93E0A0E7E27C002A60
:1004600010D0E0698022120281181720164A9142AA
:1004700000D986E0256A80200002291817209142C1
:1004800000D97EE01720104AE169914200DD78E052
:10049000256A954275DC82E700040040900900203F
:1004A0001820004161130000D11200008079000083
:1004B000DD2100003D140000AC780000FF030000C7
:1004C00001FEFFFFFF0F0000FFFF00008A6910041C
:1004D000FCD4009D2B72326893691804FCD4A38B62
:1004E000009DAB83326893691804FCD4238C009D73
:1004F0002B842C23E35C002B04D0013BDBB21720C0
:100500000F2B3ED82B22A25C17200F2A39D8316836
:1005100088690504FCD4E089217B0143A06801437C
:1005200012050A431B041343009D2B612A23E35C3D
:100530002B750F23AB752423E35C002B0ED0E38CCB
:100540001720134A93421CD8AB84238D80200001CE
:10055000191889B21720914213D8EB840D4B1A68F1
:100560005201E023DB001A400B4B586841011B6825
:10057000DB0E0B43DBB21343009D2B85002000E014
:10058000172019B03CBC90469946A246AB46F0BD38
:10059000FF0F0000246080002060800038B5151C2B
:1005A0004C08402384420BD34300081C191C054B04
:1005B0009847013880B24023FF2801D828800023C3
:1005C000181C38BD5D180000F8B5071C0D1C161C62
:1005D00006AA10783A1C424340248A4240D2002B9B
:1005E00013D100213A1C224CA047011C00202A1CD8
:1005F0000023204CA0471D4D1B4C221C2B1C121A03
:100600008B41120C1B041A4326E00022012B23D13C
:100610004C0FCD0000213A1C0023154FB847021C97
:100620000B1C281C211C134CA047C208124B9A42D9
:100630000FD9013801231049C2088A4205D9013374
:10064000DBB20138082BF7D109E04024082B01D197
:1006500006E000235B031A433280002400E04024BC
:10066000201CF8BDC046C04600000000010000008C
:100670003D190000FD180000FF1F0000C046C046E5
:1006800010B582B0041C0F4B1B78002B01D0002941
:100690000DD001A90C700C200B4B98470C200B4B74
:1006A0009847084B5C7001221A70002007E0054B48
:1006B0005A781D20141B621E94416442204002B0EF
:1006C00010BDC046E008002061130000D1120000F8
:1006D000444B984233D006D8434B98420DD0434BFD
:1006E00098421BD06FE0424B98424AD0414B98420F
:1006F00058D0414B984266D132E0012965D000299B
:1007000004D0022906D0032906D001E03B4867E067
:10071000002065E03A4863E03A4861E0012956D09C
:10072000002904D0022906D0032906D001E00320C5
:1007300056E0002054E0344852E0344850E00129AB
:1007400047D0002904D0022906D0032906D001E0B1
:100750002F4845E0002043E02E4841E02E483FE08E
:10076000012938D0002904D0022906D0032906D057
:1007700001E02A4834E0002032E0294830E02948EE
:100780002EE0012929D0002904D0022906D003290E
:1007900006D001E0244823E0002021E023481FE0A8
:1007A00023481DE001291AD0002904D0022906D0CF
:1007B000032906D001E01F4812E0002010E01E4887
:1007C0000EE01E480CE000200AE01D4808E01D482D
:1007D00006E01D4804E01D4802E01D4800E01D48F9
:1007E0007047C0460010004200080042000C004262
:1007F00000180042001C00420014004203000400E4
:10080000030006000300070003001E0003001F0092
:100810000300080003000A0003000B00030010009F
:10082000030012000300130003000C0003000E007D
:1008300003000F0003001600030018000300190056
:10084000030005000300010003000900030011007C
:1008500003000D000300170038B58000144BC45886
:100860002368DD682D0C237E1D40637E1D40EA0752
:1008700005D5201CA3689847012322689373AB0712
:1008800005D5201CE2689047022322689373EB068B
:1008900005D5201C22699047102322689373AB066C
:1008A00005D5201C62699047236820229A7338BDC1
:1008B0005809002008B50020014B984708BDC046E4
:1008C0005908000008B50120014B984708BDC046F3
:1008D0005908000008B50220014B984708BDC046E2
:1008E0005908000008B50320014B984708BDC046D1
:1008F0005908000008B50420014B984708BDC046C0
:100900005908000008B50520014B984708BDC046AE
:100910005908000008B50620014B984708BDC0469D
:100920005908000008B50720014B984708BDC0468C
:1009300059080000F0B55F4656464D464446F0B4AF
:100940008DB0051C0C1C161C2960081C794B98479F
:1009500021680523CA0700D5E3E022681C23970716
:1009600000D5DEE0744B196A821C012797403A1CBF
:100970000A431A620BA9737F0B700D30C7B2381C83
:100980006E4B9847381C6E4B9847707F00216D4B1B
:100990009847F37A6B71337DAB71737DEB712F6880
:1009A0000397381C634B98470D3000226B46DA8260
:1009B00031688946F2689246B37D98467368002B89
:1009C00013D08022520593422BD1F37D002B01D00E
:1009D0002A682AE03769C0B25B4B9847011C381C73
:1009E0006A461632594B98471CE0F37D002B09D01C
:1009F000102300933069B1696A4616320023544FC0
:100A0000B8470FE031698B46C0B24F4B9847011C85
:100A10001023009358466A46163200234C4FB847BD
:100A200000E00020031E7CD1D2E713691804FCD437
:100A30006B4616331B88039F7B8151464846014312
:100A40007268114347467B071943F37D002B01D1A0
:100A500004231943307D4004737D1B041843F27A4C
:100A6000B37A134318433389FF2B03D080225204F7
:100A700011431843337F002B03D1364B1B689A0375
:100A800001D5802319432A6813691F04FCD4039FEE
:100A900078602A6813691804FCD4039F39600AAB94
:100AA00080221A7000225A7001219970DA70306A1F
:100AB0000690716A0791B26A0892F66A0996002751
:100AC0001E1CF9B2BB0006AA9858002802D1201CAF
:100AD000214B9847411C05D03070000CC0B2311C2E
:100AE0001E4A90470137042FEBD10023AB60EB6027
:100AF0002B61AB616B610022EB83AB832023EA5453
:100B00002123EA542223EA542323EA542868094B78
:100B10009847041C1249134B9847A400124BE55008
:100B20000023181C0DB03CBC90469946A246AB462B
:100B3000F0BDC046F10C000000040040611300004D
:100B4000D1120000810600007D1300009D05000009
:100B5000C905000000200041D10600003D1400003E
:100B6000B50B00002D0D000078090020931C9B00A0
:100B70001950012393401A1C2023C15C0A43C2541C
:100B80007047C04610B51723002A11D0C469240C41
:100B90000523002C0CD1C4791C23002C08D0036839
:100BA000C283816105212322815401225A730023CB
:100BB000181C10BDF8B580004B4BC5582C68236934
:100BC0001904FCD4E668360CE3681B041B0E1E40B7
:100BD0002123EB5C2022AA5C171C1F40F20720D5C2
:100BE000EB691B0C1BD0AB691A78D2B2591CA961F6
:100BF0006979012904D1597809020A430233AB61AA
:100C0000D305DB0D2383EB691B0C013B9BB2EB830C
:100C1000002B06D1012323730223637301E0012318
:100C20002373B30709D50223237300222323EA5435
:100C3000F90702D5281CAA689047730752D5EB69BB
:100C40009BB2002B4CD02369DBB2590725D09A0701
:100C500008D51A222223EA54226992B202231343AE
:100C6000238214E0590708D51E222223EA54226960
:100C700092B204231343238209E0DA0707D5132233
:100C80002223EA54226992B20123134323827B0771
:100C900028D52B69281C984724E0A269D205D20DDB
:100CA000D3B269690B706B69591C69616979012953
:100CB00004D1120A5A706B6901336B61EB699BB204
:100CC000013B9BB2AB83002B0CD104232373002286
:100CD0002223EA54BA0705D5EB68281C984701E09F
:100CE00004232373F8BDC046780900207047C0462E
:100CF00070B586B00C4A6B4670CA70C332CA32C334
:100D0000009E864206D001239A00694652588242CC
:100D100003D100E00023D8B203E00133062BF3D166
:100D2000002006B070BDC046D0790000F0B50A4B77
:100D30001B78002B0CD1094F094E0A4D0024DE51BF
:100D40005A1914600433182BF9D10122024B1A707E
:100D50008000024BC150F0BDE4080020E8080020EC
:100D6000ED0C00007809002010B582B0041C684624
:100D7000054918310622054B9847201C044B98471B
:100D80006B46185602B010BDD0790000DD2100007E
:100D9000F10C000008B5024B1B680020984708BD05
:100DA000E808002008B5024B5B680120984708BDA1
:100DB000E808002008B5024B9B680220984708BD50
:100DC000E808002008B5024BDB680320984708BDFF
:100DD000E808002008B5024B1B690420984708BDAD
:100DE000E808002008B5024B5B690520984708BD5C
:100DF000E808002038B5294B1C6823689D69EDB2CE
:100E0000E9072ED5E27ED1072BD5A27ED10728D5C2
:100E100001221A7663699A1C626122689269120C37
:100E20001A80A3699BB2013B9BB22383002B0CD099
:100E3000637F002B15D023689A691104FCD4D9680C
:100E4000C9B202220A431A730BE0E369DBB2052B35
:100E500007D100232377012322689375201CA36800
:100E6000984769070BD5042322681376E37E990718
:100E700005D5A37E9A0702D5201CE3689847A907E9
:100E80000BD5022322681376E37E590705D5A37E8E
:100E90005A0702D52369201C984738BD90090020C5
:100EA0000C4B1B68002B10D1EFF31083002B09D1E2
:100EB00072B6BFF35F8F0022074B1A700122074BF7
:100EC0001A7002E00022054B1A70024B1A680132B8
:100ED0001A6070470009002000000020040900206B
:100EE000084B1A68013A1A601B68002B09D1064B9F
:100EF0001B78002B05D00122044B1A70BFF35F8FC3
:100F000062B670470009002004090020000000209C
:100F1000F0B583B001AC012565700027A77025707E
:100F20000E20211C064EB0478022D201054B9A614B
:100F3000277065700F20211CB04703B0F0BDC0467C
:100F4000490F00000044004100B583B001AB80228E
:100F50001A700A785A704A789A708A78DA70191C6E
:100F6000014B984703B000BD3D14000008B50728A9
:100F70002BD88000174B1B589F468020000227E08B
:100F8000154BD86824E0154B186A8005800F144B68
:100F9000C340181C1CE0104B186919E00E4B1B686D
:100FA0000220184014D00D491022CB681A42FCD000
:100FB000094B1B685A070AD500200A4B9847064B75
:100FC0009B681B041B0C584302E0002000E006480D
:100FD00008BDC046F0790000080900200008004064
:100FE00000127A007D130000006CDC0270B50C4B1F
:100FF0001C6A0178857840780122104080014026E3
:10100000B44304432A40D00180229443221C02436B
:10101000032001400902034802400A431A6270BDDE
:1010200000080040FFFCFFFF07283DD880001F4B51
:101030001B589F46002038E01D4B196A02220A43C4
:101040001A62002031E01A4B996902220A439A6120
:1010500000202AE0164B1A6992B202210A431A8232
:10106000002022E0124B5A6992B202210A439A826E
:1010700000201AE00F4B196802220A431A601A680E
:101080000D4B1A400A4B9A84191C1022CB681A4245
:10109000FCD0084A9168064BD9625168996212687F
:1010A00092B29A84002000E017207047107A000066
:1010B00000080040080900207FFF000030B585B01F
:1010C000144A154B9A60154B5A681E218A435A6080
:1010D00003A800244470012585700470104B9847C4
:1010E0000620104B9847104B9847104B1C725C72AF
:1010F0009C7201956A4654700623137014725472E0
:10110000002069460A4B984700200A4B984705B0D3
:1011100030BDC046103600000008004000400041CD
:10112000ED0F0000291000003911000000040040FC
:101130005D1100000D120000064B996908220A4358
:101140009A610122044B1A70191C0B681342FCD1DE
:101150007047C04600040040000C0040F8B5061C73
:10116000071C0D782D0205434B78002B02D08023FD
:10117000DB021D434B7A002B02D080231B031D434F
:101180004C68012C17D9631E1C420FD1022C06D9C2
:101190000223002201325B009C42FBD800E00022C7
:1011A0001702374380235B031D4304E027023743C4
:1011B00080239B021D430B7A002B02D080239B03CC
:1011C0001D430E4A13681904FCD40D4B98470D4B70
:1011D0001E700A490B681A04FCD4084B9F601A1C45
:1011E00013681904FCD4054B5968802252020A4046
:1011F00015435D60044B9847F8BDC046000C0040A5
:10120000A10E0000080C0040E10E000010B5041C07
:101210000A4A13681904FCD4094B9847094B1C70FF
:10122000064A13681904FCD4044B59688022520200
:101230000A435A60044B984710BDC046000C00405A
:10124000A10E0000040C0040E10E000070B5041C6B
:10125000184A13681904FCD4174B9847174B1C7095
:10126000144A13681904FCD4124E7068C004C00EEE
:10127000134B9847051C114B1C707668F602F60F4D
:10128000104B1C700B4A13681904FCD4094B9C6862
:101290002402240C0C4B9847002E07D1012C07D9AF
:1012A000281C211C094B9847051C01E00134E5402E
:1012B000281C70BD000C0040A10E0000040C004072
:1012C0006D0F0000080C0040E10E00005D180000EA
:1012D00010B5041C064B9847064B1C70064B19684A
:1012E000090C8022D2010A435A80044B984710BD52
:1012F000A10E0000020C0040000C0040E10E0000B6
:1013000010B5041C104B9847104B1C70104B1868FC
:101310000001000F59880F4A0A405A801A68120CBF
:101320000D490A405A80191C8022D2010B681B0CFF
:101330001342FBD1064B01025888064A02400A4379
:101340005A80064B984710BDA10E0000020C0040C9
:10135000000C0040FFF0FFFFFFBFFFFFE10E0000A9
:1013600010B50C7824020443024B9847A4B2024BF8
:101370005C8010BD01130000000C004010B5041C7F
:10138000064B9847064B1C70064B1C682401240F23
:10139000054B9847201C054B984710BDA10E000037
:1013A000020C0040000C0040E10E00004D12000055
:1013B00030B5D4780023002C1ED11378802B04D0B4
:1013C0001B0680246402234300E000235478022596
:1013D000AC430AD19478002C03D18024A402234387
:1013E00002E0C024E402234341605478013CE4B2AB
:1013F000012C01D8104C23400D042D0CA024E40531
:101400002C431C4384620D0CD02424062C431C4323
:101410008462D478002C0DD15C0305D59378012B20
:1014200001D1816100E041615378013BDBB2012BC6
:1014300000D8816030BDC046FFFFFBFF08B5031C2C
:101440000A1CC1090020002903D15809C001044920
:1014500040181F210B4001219940024B984708BDBD
:1014600000440041B11300007047C046FEE7C0468B
:1014700008B5044B9847044B9847044B9847044BD6
:10148000984708BDBD100000110F0000691400004E
:1014900069140000FEE7C04610B5194B194A9A427C
:1014A00003D0194B164A9A4204D3184B184A9A4251
:1014B00010D31BE0174B14480330C01A80080130CA
:1014C000800000230E490F4AD458CC500433834285
:1014D000FAD1EAE70E4B1A1D0C490331891A890823
:1014E00089005218002102C39342FCD10A4B7F218C
:1014F0000A4A8A439A600A4B98470A4B9847FEE784
:1015000000000020DC7C0000C4080020E40900206A
:10151000C40800200400002000ED00E000000000EE
:101520009121000025170000064B1B68002B02D1FB
:10153000054A044B1A60034A136818181060181CF7
:101540007047C0461C090020E82900208022D201F3
:10155000014BDA617047C0460044004108B50348BA
:1015600003490522034B984708BDC0469409002053
:10157000B8090020850B000000B583B0084B196A3C
:10158000802212010A431A6201A900230B70142061
:10159000044B98471420044B984703B000BDC04645
:1015A0000004004061130000D112000010B58CB09F
:1015B000002369460B700B710B7608930793C022CA
:1015C0005201CA810B744B748B74CB740B752A2235
:1015D0008B544B758B7524228B540022CB840B8546
:1015E000CA752B23CA542C23CA54F0231B0502931B
:1015F00080235B006A464B8002234B7008230B73E9
:101600000E4C201C0E490F4B984723689A69110411
:10161000FCD40A4A1279002A04D10B4A106C042126
:101620000143116480218903084A11601A68D2B20B
:1016300002210A431A700CB010BDC046C009002038
:1016400000400042610100000008004000E100E0AD
:1016500070B58CB08023DB05009300230193FF223B
:1016600069460A818B72CB7201220A754A758B75A5
:10167000CB7506930B774B77E1235B020493C4236E
:101680009B03039301235B4208930993114B0A9335
:10169000114B0B93114E124D124C301C291C6A46F3
:1016A000A0470028F9D10D4D2C68201C0E4B9847FF
:1016B0001F23184001238340181C0C4B18602A6814
:1016C00013691904FCD422680223134323600CB06D
:1016D00070BDC046020018000200190094090020E5
:1016E0000014004235090000690D000000E100E02F
:1016F00038B5084C201C08490022084DA847201C7A
:1017000007490122A8472123E15C03220A43E2544E
:1017100038BDC046940900204D1500006D0B000037
:101720005D150000F0B5474680B4A0B0374B984730
:10173000374B9847374B9847374B384A5A60384AA7
:10174000106A0002000AC02109060143116200224A
:101750009A6007221A60334B9847334B9847334BB4
:10176000984714A9324A0B1C31CA31C331CA31C35C
:1017700031CA31C311CA11C312781A702D482D22F3
:101780002D4B98472D4D2E4F2E488046FA22920021
:101790002B689342FCD9386883691A04FCD4C36867
:1017A000DBB202221343037301240426022182695F
:1017B000D2B2231C1340164200D00B43114200D07A
:1017C00033431C42F3D083691C04FCD48269120C9D
:1017D000012101768369DBB219405C0701D502243F
:1017E00021439C0701D5042319434B0701D502234C
:1017F000037668464146144B98470E486946502286
:101800000D4B984700220D4B1A60BFE77114000082
:10181000BD1000007915000010E000E03F1F00003F
:1018200000ED00E0AD15000051160000F1160000BB
:10183000447A000094090020850B00002009002054
:10184000C0090020307A000041220000024B1A68D3
:1018500001321A607047C04620090020002934D0A8
:101860000123002210B488422CD301242407A14272
:1018700004D2814202D209011B01F8E7E400A1422F
:1018800004D2814202D249005B00F8E7884201D3CA
:10189000401A1A434C08A04202D3001B5C082243A2
:1018A0008C08A04202D3001B9C082243CC08A04213
:1018B00002D3001BDC082243002803D01B0901D0FF
:1018C0000909E3E7101C10BC7047002801D0002074
:1018D000C04307B4024802A14018029003BDC046AD
:1018E000190000000029F0D003B5FFF7B9FF0EBCC6
:1018F0004243891A1847C0467047C046002B11D191
:10190000002A0FD1002900D1002802D00021C943AC
:10191000081C07B4024802A14018029003BDC0464B
:10192000D9FFFFFF03B4684601B5029800F044F800
:10193000019B9E4602B00CBC7047C0469C46030407
:10194000F0B51B0C17043F0C150C1E1C041C000CDE
:101950007E436B4347434543FB18300C18188742BE
:1019600002D980235B02ED18030CED1863465C433B
:101970004A433604360CA118000480194919F0BDF9
:10198000F0B583B0161C1F1C0090019100F02EF8DA
:10199000041C0D1C221C2B1C301C391CFFF7CEFF15
:1019A000009A019B121A8B410899201C0A604B6017
:1019B000291C03B0F0BDC046F0B583B0141C1D1C3B
:1019C0000090019100F0EAF9221C2B1C061C0F1C50
:1019D000FFF7B4FF009A019B121A8B410899301C43
:1019E0000A604B60391C03B0F0BDC046F0B54446F8
:1019F0005F4656464D46F0B41C1C85B0002900DAFF
:101A0000D9E00F1C0021061C8A46101C191C002C52
:101A100000DAC7E00196009089468046002950D13F
:101A2000B84262D900F07AFB002809D0202345464D
:101A3000311C1B1A85408740D940A8460F43864079
:101A40004246140C13041B0C211C381C9B46FFF748
:101A500005FF5B464343051C211C381C9946FFF7D4
:101A600041FF330C08041843814509D940446B1EDB
:101A7000804500D977E1814500D874E1023D4044BA
:101A80004946411A8946081C211CFFF7E7FE5A46C1
:101A90004243071C211C48469346FFF723FF3604A8
:101AA0000904360C0E43B34507D946447B1EB045A6
:101AB00002D8023FB34500D81F1C2D042F43002439
:101AC00003E0B94260D9002400275246381C211C8B
:101AD000002A03D03B1C00215842A14105B03CBC68
:101AE00090469946A246AB46F0BD002804D101209D
:101AF0000021FFF7B3FE8046404600F00FFB0028B0
:101B000060D1414644460B043C1B1B0CA3460D0C04
:101B100000930124291C5846FFF7A0FE009F814630
:101B20004743291C5846FFF7DDFE330C09041943CF
:101B30008F4208D94B464144013B884502D88F4229
:101B400000D925E19946C91B8B46081C291CFFF7C3
:101B500085FE009B291C4343071C58460093FFF752
:101B6000C1FE3604009D0904360C0E43B54207D968
:101B700046447B1EB04502D8023FB54200D81F1C28
:101B800049460B041F43A0E7081C00F0C7FA041ED7
:101B900070D1B94503D3009C019DAC4293D8002479
:101BA000012792E75246D243031C0C1C92460021A7
:101BB0005842A1412EE7002746428F410121494268
:101BC0008A4622E720231B1A4246351C82403C1CD1
:101BD000DD40DC4087402B1C150C3B43291C864014
:101BE000201C009317049046FFF738FE3F0C011CA1
:101BF000794381468B46201C291CFFF773FE009C0D
:101C00000904230C19438B450CD94B464144013B35
:101C1000884500D9BAE08B4500D8B7E0022252428D
:101C2000914441445C460C1B201C291C0194FFF785
:101C300015FE391C4143041C8B460198291CFFF7F3
:101C400051FE009A090413041B0C19438B4509D952
:101C50004144631E884500D994E08B4500D891E04B
:101C6000023C41445B46CB1A49469B460B041C434D
:101C700000974FE7009D20231B1A4A460099824097
:101C8000DD40154381403A1CDA400091311C9046FA
:101C9000D9403A1C82400B1C134301932F0C2B0498
:101CA0001B0C391C40460293FFF7D8FD029A81466F
:101CB0004243391C40469346FFF714FE019A09043B
:101CC000130C19438B450AD94B464919013B8D42E8
:101CD0005AD88B4558D902235B42994449195A4630
:101CE0008A1A101C391C0392FFF7B8FD029B80462C
:101CF0004343391C03989B46FFF7F4FD019A0904FE
:101D000013041B0C19438B450AD943464919013B5F
:101D10008D4235D88B4533D902235B42984449190B
:101D20005D464D1BAB464946009D0F044246174396
:101D30002A04120C3B042D0C1B0C380C111C5943AB
:101D400042436B436843D3180D0C5B198C469A428F
:101D500002D98022520280181D0C401983450CD3F1
:101D600003D00024B1E61D1C8AE665462A041B0444
:101D7000120C9B18A6409E42F3D2013F0024A4E619
:101D80009846CDE71C1C6DE79946A8E7994649E7B8
:101D90000222524291444144D5E6C046F0B55F4626
:101DA00056464D464446F0B40D1C85B0061C92467E
:101DB00098460290019103921F1C141C8346A94669
:101DC000002B52D1AA426BD9101C00F0A7F90028B1
:101DD0000AD020231B1A311CD94085400B1C2B43F1
:101DE000864084409946B346250C23041B0C291CCD
:101DF00048469846FFF732FD4646071C4643291CD5
:101E00004846FFF76FFD5A460904130C19438E42EA
:101E100009D909197B1E8C4200D959E18E4200D89C
:101E200056E1023F0919891B8946081C291CFFF746
:101E300015FD43464343061C291C48469846FFF7B8
:101E400051FD5A46130409041B0C1943884508D94F
:101E50000919731E8C4200D938E1023E884500D82A
:101E600034E138043043002712E0019A93420DD840
:101E7000181C00F053F9041E66D1019B9F4200D24A
:101E800021E1039F02998F4200D81CE10027002026
:101E9000391C05B03CBC90469946A246AB46F0BD05
:101EA000002A04D101200021FFF7D8FC041C201CCB
:101EB00000F034F9002800D0B6E023042D1B1B0CE1
:101EC000A946260C98460127311C4846FFF7C6FC58
:101ED00041464143051C8A464846311CFFF702FD36
:101EE0005A460804130C1843824507D900196B1E83
:101EF000844202D8824500D90DE11D1C5346C31A05
:101F0000181C311C9A46FFF7A9FC41464143814603
:101F100088465046311CFFF7E5FC5A461304090475
:101F20001B0C194388450BD94B460919013B8C42C0
:101F300000D9CFE0884500D8CCE002235B42994429
:101F4000280449460843A3E720231B1A4246574664
:101F50008240DF401743524682400192321CDA40F1
:101F6000291CD9408540131C2B4302933D0C3B0494
:101F70001B0C8846081C291C9A46FFF76FFC534629
:101F800043438146291C40469B46FFF7ABFC029A1F
:101F90000904130C19438B4506D94B46C919013B5B
:101FA0008F4200D8ABE099465A468A1A101C291C69
:101FB0009346FFF753FC53464343291C804658463B
:101FC0009A46FFF78FFC029A090415042D0C294349
:101FD0008A4506D94346C919013B8F4200D886E09D
:101FE00098465746CF1BBA464946019F08044246C9
:101FF00010433D042D0C03043F0C1B0C020C291C48
:10200000594355437B437A43EB180F0CDB198C463D
:102010009D4202D980277F02D2191D0C5219924588
:1020200062D359D0002733E720231B1A311C2F1C01
:10203000D940DF4085400B1C84402B4386400193F0
:10204000B3462304260C1B0C381C311C9846FFF7A2
:1020500005FC42464243051C311C381C9146FFF7E3
:1020600041FC019F09043B0C1943894507D9091913
:102070006B1E8C424DD889454BD9023D09194A4601
:102080008A1A101C311C9246FFF7E8FB4346434373
:10209000071C311C50469946FFF724FC019A09049D
:1020A00013041B0C1943894507D909197B1E8C425F
:1020B0002DD889452BD9023F09194B46CB1A2D043F
:1020C00099462F4300E700270120E1E61E1CC8E6E1
:1020D0001F1CA8E6994633E761460A041B04120C4C
:1020E0009B18A6409E429DD201380027D0E68A4523
:1020F00000D875E702235B429844C91971E78B4504
:1021000000D850E702235B429944C9194CE71F1CD1
:10211000D3E71D1CB3E7023D0019EFE61C210123A4
:102120001B04984201D3000C10391B0A984201D3BA
:10213000000A08391B09984201D30009043902A298
:10214000105C40187047C0460403020201010101FF
:10215000000000000000000008B5011C0020021C67
:10216000031C01F041F808BD38B5074B074C1D1C96
:10217000E41AA410002C04D0013CA300EB589847AB
:10218000F8E705F09FFD38BDD07C0000D47C00004E
:1021900070B50E4B0E4D0024ED1AAD101E1CAC4256
:1021A00004D0A300F35898470134F8E705F080FD08
:1021B000084B094D0024ED1AAD101E1CAC4204D092
:1021C000A300F35898470134F8E770BDBC7C0000C9
:1021D000BC7C0000BC7C0000C47C000010B5002367
:1021E000934203D0CC5CC4540133F9E710BD031C07
:1021F0008218934202D019700133FAE77047000049
:102200000CB410B59CB0029106910C491EAB049120
:1022100007918224012104CBA40002AA494294819F
:10222000D181111C1E9A019300F02EF8029A00230E
:1022300013701CB010BC08BC02B01847FFFFFF7F32
:102240000EB400B59CB01DAB04CB822202A9920053
:102250008A810A4A02908A604A6101225242CA81F6
:10226000074A086110681D9A019300F00DF8029A60
:10227000002313701CB008BC03B01847FFFFFF7F9A
:102280000800002000000000F0B5C5B01F1C0C9134
:1022900012920D9001F09EFF00681A9002F0EAFD84
:1022A0000C9D1990AB89180612D5296900290FD108
:1022B0000D98402101F0A6FF28602861002804D174
:1022C0000D9D0C232B6000F082FF0C9D40236B6161
:1022D000002334AC279429932893109316931893D2
:1022E0001D931C931793129D2B78002B03D11298EA
:1022F0002E1A04D11DE0252BF9D00135F4E7299AD7
:102300001299B3182993289B2160013366602893A2
:10231000072B01DC083409E00D980C9927AA02F07C
:10232000B1FD002801D000F04DFF34AC179B9B1984
:1023300017932B78002B01D100F03CFF6A46002355
:102340007F3213700122524201350A9214931E1CEF
:10235000681C2D7812900B950B982038582800D9BE
:102360008EE303F0F9FB5B008D038D0369008D03A1
:102370008D038D038D038D038D036B0059008D0339
:10238000720075008D03A000A200A200A200A200AE
:10239000A200A200A200A200A2008D038D038D0363
:1023A0008D038D038D038D038D038D038D03D0006D
:1023B000FC008D03FC008D038D038D038D03B6009F
:1023C0008D038D036E028D038D038D038D038D03AD
:1023D000C2028D038D0364008D038D038D038D0375
:1023E0008D038D038D038D038D038D03C500600068
:1023F000FC00FC00FC00B80060008D038D03BA00F7
:102400008D03550270029002C3008D03A0028D035C
:10241000C4028D038D03E3022B2302E0002B00D1C5
:102420002023129D94E76A467F32137070E06A465B
:102430007F321370C64D7DE2012207E03D6804370C
:102440001495002DEDDA6D42149504221643E8E749
:10245000129D129A2D7801320B952A2D01D0002160
:102460000DE0391D3F680A97002F05DA129201220C
:1024700052420F1C0A92D4E70F1C1292D1E70B981C
:1024800012923038092806D80A25694315780918A8
:102490000B950132F3E70A91002900DB5CE701228A
:1024A00052420A9258E78022D0E700251495149DE5
:1024B0000A2169430B9A129D303A8A180135149209
:1024C0002A1C013A127812950B92303A092AEED959
:1024D00042E70822BAE74022B8E7129D2A786C2A20
:1024E00002D10135129501E01022AFE72022ADE7BD
:1024F00038686A462AAB00257F32012118701570B2
:1025000004370A91C9E26A467F32137010231E43D2
:10251000B20609D5FB1D072293431F1C1868596892
:102520000837089009910AE03B1D3A68F10602D489
:10253000750600D512B20892D21709921F1C09988D
:10254000002800DB26E208980999002342428B41CB
:10255000089209936B462D227F331A701AE26A465D
:102560000B9D7F321370FB1D072293431396159525
:102570001D681F1C16955B681698189318990837E4
:1025800002F032FC012812D1169818996F4B6E4A4E
:1025900003F062FB002803D06B462D227F331A70B4
:1025A0000B9D472D01DC6B4D0DE06B4D0BE016983C
:1025B000189902F019FC00280AD10B9D472D01DC67
:1025C000664D00E0664D80230E959E43032584E111
:1025D0000A9D013509D00B9D20239D43472D06D12F
:1025E0000A9D002D03D1012500E006250A958023D0
:1025F0005B001E43189B002B06DA189D8020000606
:1026000028180F902D2502E0189D0F9500251B9589
:102610000B9D20239D431195462D04D0452D05D1BA
:102620000A9D013503E00A9D032301E00A9D022370
:10263000009321AB029322AB039325AB0493019546
:102640000D98169A0F9B00F0B7FE0E901198472830
:102650000BD11399C90708D4259D0E98219A2D1ADC
:102660001095119D472D36D12BE00E9811994019E8
:102670001090462912D10E9A1378302B0AD1169851
:102680000F99324B304A03F0E1FA002802D10123BE
:102690005D1B2195109D21982D18109516980F9966
:1026A0002A4B294A03F0D2FA002801D0109D259523
:1026B000259B109DAB42CFD25A1C259230221A7016
:1026C000F6E7D01C03DB0A9DAA4200DC7EE00B9DEE
:1026D000023D0B9502E00B9D652D5EDC0B98551EAF
:1026E00023AB1870219501332B22002D01DA6D42A6
:1026F0002D221A70092D35DD69469A310A910A9A00
:10270000281C0A21119203F087FA0A9B30311970B4
:10271000281C0A2103F02AFA051C0A9801380A909D
:10272000092DECDC119A3035013A6B4615708F3368
:10273000101C69469B315A1E0133884219D2017818
:102740009A1E11700130F4E7000000000000000044
:10275000AA7A00009A7A00009E7A0000A27A00000D
:10276000A67A000030226B468E33AD181A705D7069
:1027700024AA23AB109DD31A5D190A95109D1C93B2
:10278000012D04DC00251195139DED0736D50A9D1A
:1027900001350A950025119530E00B9D662D15D168
:1027A000131C0A9D002A08DD002D02D1139DED07A0
:1027B00020D50A9B0133D3181CE0002D03D1139DB3
:1027C00001231D4216D00A9B023313E0109D131EF5
:1027D000AB4206DB67251595139DED070AD5531C03
:1027E00008E00123002A01DC02239B1A109DEB184C
:1027F00067251595159D11920B950A931B98002539
:10280000A84200D14EE16B462D227F331A7049E178
:102810006A467F3213703B1DB10605D5179D3A6895
:10282000E917156051600AE0F00605D4700603D57B
:102830003A68179D158002E03A68179D15601F1CC5
:1028400051E510231E43202333400AD0FB1D0722ED
:10285000934318685968089009911F1C0837002392
:1028600093E0102131403A1D002907D14023334025
:1028700004D03F8809910897171CF0E73F68099337
:102880000897171C81E039680022089109923021CD
:1028900020AAC24D0223117078211E4351700437C3
:1028A0001D950B9171E03B680A9D0E930A986B464B
:1028B00011957F33002504371D70A84210DB0E9858
:1028C000291C0A9A01F096FEA84200D1E8E00E9D6C
:1028D000401B119D0A90A84200DD0A950025E0E00A
:1028E0000E9802F0C7FA0A90DBE010231E43202264
:1028F000324009D0FB1D072293431F1C18685968FA
:102900000837089009910FE0102131403B1D002944
:1029100006D14022324003D03F880991089702E057
:102920003F68099208971F1C01232EE06A467F32F8
:102930009A4D137020221D95324009D0FB1D0722AD
:1029400093431F1C186859680837089009910FE0D5
:10295000102131403B1D002906D14022324003D0D6
:102960003F880991089702E03F68099208971F1C69
:102970000223F10709D5089A099D2A4305D00B9D2A
:1029800020AA3021117055701E436A4600217F3203
:10299000117000E001230A9D002D01DB8022964387
:1029A000089A0998024302D10A9D002D56D06D461F
:1029B000CF35012B1ED0022B3AD0089807230340B5
:1029C00030330999089A0E952B70099D4807D10854
:1029D000EA08084309920890021C0E9D0998013DDF
:1029E0000243EAD1F10743D5302B41D030220E9576
:1029F0002A703DE0099A002A04D1089B092B01D8CE
:102A0000303333E0089809990A2200230E95FEF727
:102A100075FF0898099930322A700A220023FEF7C0
:102A20006DFF031C08900991013D0B43EAD11FE0A3
:102A30000898099A1D990F230340CB5C11070209DE
:102A400009982B7003091143099308910B1C0999EC
:102A50000E950B43013D002BEAD109E034AD0E95F4
:102A6000002B05D1F00703D5013D30232B700E95C7
:102A70000E9934AB5B1A00220A9D11920A9311E061
:102A80006A460B9D7F321370002D00D192E32AAB72
:102A90001D700120002515700A9011950E9301E01C
:102AA000051C11950A991391A94200DA13956B46FA
:102AB0007F331B785A1E9341139AD2180223334056
:102AC0001392159301D002321392842333401B9347
:102AD00037D1149B13981B1A0F93002B31DD304B09
:102AE0000F9A2360102A18DD10236360299B10338E
:102AF0002993289B01332893072B01DC083408E035
:102B00000D980C9927AA02F0BDF9002800D059E3CE
:102B100034AC0F9910390F91E1E7299862601318CE
:102B20002993289B01332893072B01DC083408E004
:102B30000D980C9927AA02F0A5F9002800D041E3CE
:102B400034AC6B467F331A78002A15D023600123FA
:102B50006360299B01332993289B01332893072B1A
:102B600001DC083408E00D980C9927AA02F08AF9D4
:102B7000002800D026E334AC159900291BD020ABE7
:102B8000236002236360299B02332993289B01332E
:102B90002893072B06DC08340DE0C046BB7A000002
:102BA0007A7A00000D980C9927AA02F06BF9002898
:102BB00000D007E334AC1B9A802A38D1149B1398B9
:102BC0001B1A0F93002B32DDC94B0F9A1033236071
:102BD000102A18DD10236360299B10332993289B4A
:102BE00001332893072B01DC083408E00D980C9979
:102BF00027AA02F047F9002800D0E3E234AC0F998D
:102C000010390F91E0E72998626013182993289BE7
:102C100001332893072B01DC083408E00D980C9948
:102C200027AA02F02FF9002800D0CBE234AC0A9991
:102C30006D1A002D2FDDAE4B10332360102D16DDE5
:102C400010236360299B10332993289B0133289319
:102C5000072B01DC083408E00D980C9927AA02F034
:102C600011F9002800D0ADE234AC103DE3E7299A19
:102C7000289B65600133AD1829952893072B01DC4B
:102C8000083408E00D980C9927AA02F0FBF80028F8
:102C900000D097E234ACF30503D40E9D25600A9D65
:102CA000D7E00B9D652D00DCB7E1169818998F4B86
:102CB0008D4A02F0CBFF00285AD08E4B23600123AF
:102CC0006360299B01332993289B01332893072BA9
:102CD00001DC083408E00D980C9927AA02F0D2F81C
:102CE000002800D06EE234AC2198109DA84202DB8F
:102CF000F00700D414E21A9D29982560199D2B181D
:102D00002993289B656001332893072B01DC083445
:102D100008E00D980C9927AA02F0B4F8002800D01A
:102D200050E234AC109D013D002D00DCF8E1704B09
:102D300010332360102D16DD10236360299B1033A0
:102D40002993289B01332893072B01DC083408E0E2
:102D50000D980C9927AA02F095F8002800D031E2CE
:102D600034AC103DE3E7299965606D18299544E17D
:102D7000219A002A71DC5F4B236001236360299B49
:102D800001332993289B01332893072B01DC083456
:102D900008E00D980C9927AA02F074F8002800D0DA
:102DA00010E234AC219B002B05D1109D002D02D1E7
:102DB000F00700D4B4E11A9D29982560199D2B18BD
:102DC0002993289B656001332893072B01DC083485
:102DD00008E00D980C9927AA02F054F8002800D0BA
:102DE000F0E134AC21994D42002D2FDD404B1033E2
:102DF0002360102D16DD10236360299B1033299367
:102E0000289B01332893072B01DC083408E00D9838
:102E10000C9927AA02F036F8002800D0D2E134AC91
:102E2000103DE3E7299A289B65600133AD18299589
:102E30002893072B01DC083408E00D980C9927AA89
:102E400002F020F8002800D0BCE134AC0E9D2560D3
:102E5000109D656029982B18CEE00E9D10980E9954
:102E6000119A2D180A956D1A954200DD151C002D3A
:102E700015DD0E9B299823602B182993289B6560EC
:102E800001332893072B01DC083408E00D980C99D6
:102E900027AA01F0F7FF002800D093E134ACEB4300
:102EA000DB1711991D404D1B002D39DD104B1033E0
:102EB0002360102D20DD10236360299B103329939C
:102EC000289B01332893072B01DC083408E00D9878
:102ED0000C9927AA01F0D6FF002800D072E134AC8B
:102EE000103DE3E7C046C0460000000000000000BF
:102EF0007A7A0000CC7A0000299A289B6560013319
:102F0000AD1829952893072B01DC083408E00D98AB
:102F10000C9927AA01F0B6FF002800D052E134AC8A
:102F20000E9D119821992D180E95109DA94201DB37
:102F3000F00716D51A9D29982560199D2B182993FD
:102F4000289B656001332893072B01DC083408E0D7
:102F50000D980C9927AA01F095FF002800D031E1C7
:102F600034AC109D21980A990E9A2B1A8D1A9D4205
:102F700000DD1D1C002D15DD0E9B299823602B18EC
:102F80002993289B656001332893072B01DC0834C3
:102F900008E00D980C9927AA01F074FF002800D0D2
:102FA00010E134ACEB432A1C2198109DDB171A402A
:102FB0002B1A9D1A002D00DCB2E0894B10332360E0
:102FC000102D16DD10236360299B10332993289B55
:102FD00001332893072B01DC083408E00D980C9985
:102FE00027AA01F04FFF002800D0EBE034AC103DE1
:102FF000E3E7299965606B182993289B013328938F
:10300000072B00DC8BE00D980C9927AA01F03AFF02
:10301000002800D0D6E034AC82E0109D012D02DC07
:1030200001231E426FD001236360299B0E9D013353
:103030002993289B256001332893072B01DC083452
:1030400008E00D980C9927AA01F01CFF002800D079
:10305000B8E034AC1A9D29982560199D2B18299346
:10306000289B656001332893072B01DC083408E0B6
:103070000D980C9927AA01F005FF002800D0A1E0C7
:1030800034AC16981899554B534A02F0DFFD109D49
:10309000013D002808D10E9B656001332360299B08
:1030A000109D013B5B1933E0002D34DD4C4B103398
:1030B0002360102D15DD10236360299B10332993A5
:1030C000289B01332893072B01DC083407E00D9877
:1030D0000C9927AA01F0D6FE002873D134AC103D1C
:1030E000E4E7299865602D182995289B01332893DA
:1030F000072B0FDD0D980C9927AA01F0C3FE0028BD
:1031000060D134AC07E00E9D6360299B25600133DC
:103110002993EAE7083423AB23601C9D99E6083421
:1031200071070BD4139B149DAB4200DA2B1C179D27
:103130002998ED181795002837D02FE01499139A85
:103140008D1A002DEEDD264B2360102D15DD10238A
:103150006360299B10332993289B01332893072B05
:1031600001DC083407E00D980C9927AA01F08AFECB
:10317000002827D134AC103DE5E7299B6560ED18A8
:10318000289B299501332893072BCBDD0D980C99AB
:1031900027AA01F077FE0028C4D013E00D980C99FF
:1031A00027AA01F06FFE00280CD10023289334AC2D
:1031B000FFF799F8299D002D04D00D980C9927AAA6
:1031C00001F060FE0C9D1798AB89590601D50120CE
:1031D000404245B0F0BDC0460000000000000000C5
:1031E0007A7A0000C046C046F7B51E1C234B051C6A
:1031F0001B6801911C1CFC34E06C171C002803D1D7
:10320000A62252009818E06443681F2B16DD1C4B61
:10321000002B02D1012040422EE0C820400000E0F7
:1032200000BF0028F6D0E26C00230260C4225200E6
:103230004360E0648350C622520083504368002DEF
:1032400013D09C000419221C88321760C2277F000B
:10325000C2195768012199400F43FC345760E6605A
:10326000022D02D19468214391605A1C019F0233C0
:103270009B0042601F500020FEBDC046747A0000D3
:103280000000000008B5034B002B02D00248FEF7F7
:1032900063FF08BD0000000069210000000000007D
:1032A000F0B589B006910B690169051C00269942A9
:1032B0007FDB069C5F1E143404940499BC0009193A
:1032C000021C0B68143205911419191C0131206875
:1032D0000392FEF7C3FA0290B04238D00499039BE0
:1032E0008C4601960796624604329446043A40CAD8
:1032F0000299B0B24843310C029E019A71431018F2
:10330000020C51180A0C01921A6880B296B2079A00
:1033100089B2B618301A1E68320C521A0614921965
:10332000111480B21204059E1043079101C3664533
:10333000D9D2216800290AD1039E043CB44201D8A5
:103340002F6104E021680029FAD1013FF4E7281C2D
:10335000069901F081FB00282ADB029C039A0134C4
:10336000049B02940024116840CB88B200191468B1
:10337000B1B2401A360C210C891B041409190C1423
:1033800080B20904059E014302C29E42EBD2039C17
:10339000BB00E3181E68002E0AD1039C043BA34225
:1033A00001D82F6104E01E68002EFAD1013FF4E736
:1033B000029E301C09B0F0BDF0B5016C9BB00790C7
:1033C000239D04920593002909D0436C01229A4061
:1033D0004B608A6001F044F9079C00232364059840
:1033E000002805DA01232B6043005B08059301E008
:1033F00000232B60059EBE4B321C1A409A4218D106
:10340000BC4B229C049D2360002D01D1360301D0CA
:10341000B94800E0B948249C002C01D100F092FD8D
:10342000C278C31C002A00D00533249D2B6000F015
:1034300089FD049C059DA54BA34A201C291C02F074
:1034400005FC071E0CD0229C249D01232360002D27
:1034500001D100F074FDAA482860013800F072FD27
:1034600019AB009318AB019307982B1C221C01F099
:10347000E7FB73000A905B0D09D0201CA14C2A03C6
:10348000120B211C1143A04A16979E181BE0189B93
:10349000199C1D199D4B9D4209DB9D49049A9D4B2A
:1034A0006818C2405B1B101C9E40304304E09A48E1
:1034B000049B401B8340181C04F0C4F9974C6E1EFB
:1034C000012509191695824A824B03F013FE824AA0
:1034D000824B03F07DFB824A824B02F0E5FB041C29
:1034E000301C0D1C04F070F97F4A804B03F070FB18
:1034F000021C0B1C201C291C02F0D6FB041C0D1CFA
:1035000004F02EF9714B704A0690291C201C02F021
:10351000A3FB00280DD0069804F056F90B1C021CE2
:10352000291C201C02F092FB069C43424341E41AF2
:103530000694069C01251395162C10D8784AE300B2
:10354000D31818685968049A059B02F099FB002863
:1035500004D0013C00250694139500E013901898C0
:103560000024861B351C0294013D099504D5099C55
:103570000025644202940995069C002C06DB099DF7
:1035800012942D19002409950D9407E0069C029DC4
:103590002D1B0295654200240D951294209D012457
:1035A000092D24D8052D02DD043D20950024209806
:1035B0000238032823D802F0C5FA060E02040125BA
:1035C00002E0012508E000251095219D002D1FDD5A
:1035D0000C95089509E0002510950698219D2D1859
:1035E0000C9501350895002D18DD2B1C17E0634262
:1035F00000250C93089320951094122306E00125D2
:103600006B4210950C93089300251223219506E038
:1036100001250C9508952B1C219500E00123079DA1
:1036200000226A640422079D101C1430696C9842C1
:1036300004D8079D013169645200F4E7281C00F0AA
:10364000E7FF2864089D0B900E2D00D988E1002C1F
:1036500000D185E1049C059D14941595069D002DCF
:1036600062DD2A1C0F231A402D49D2008A181468E3
:1036700055680E940F95069D2A4C2F110225F806C9
:1036800017D51F4014981599226A636A02F030FE1C
:103690000325049005910CE0F90708D50E980F99C1
:1036A0002268636803F094FA0E900F9101357F1041
:1036B0000834002FF0D1049805990E9A0F9B02F060
:1036C00017FE4FE0C046C0460000000000000000AA
:1036D000000000000000F83F61436F63A787D23FFE
:1036E000B3C8608B288AC63FFB799F501344D33FF1
:1036F0000000F07F0F270000D77A0000CE7A00008C
:10370000CD7A00000000F03F01FCFFFFEFFBFFFF60
:10371000120400000EFCFFFFEEFBFFFF000010FE96
:10372000F87A0000E87B0000069C02256742002F23
:103730001AD00F233B40CC4ADB00D31814981599BC
:103740001A685B6803F044FAC84E3F11002F09D095
:10375000FA0704D532687368013503F039FA7F102F
:103760000836F3E704900591139C002C1ED0049EAC
:10377000059FB44BB24A301C391C02F06DFA002888
:1037800014D0089C002C11D00C9C002C00DCE3E031
:10379000069C301C013C391CAB4AAC4B119403F025
:1037A00017FA0135049005910C9C02E0069C1194D7
:1037B000089C281C049E059F0E9404F005F8321CFA
:1037C0003B1C03F005FAA24AA24B02F06DFA041C5E
:1037D000A74808180E990490051C00291BD19E4A81
:1037E0009E4B301C391C03F085FC221C049B061CDC
:1037F0000F1C02F045FA002800D05CE2221C802554
:10380000049C2D06301C391C631902F025FA00288F
:1038100000D047E2A0E00E9A934B013A1098D200F4
:103820009B18002849D01A685B688D488D4902F0C2
:103830005FFD2B1C221C03F05DFC049005910B9D89
:10384000391C301C03F08CFF041C03F0BDFF021C6C
:103850000B1C301C391C03F04DFC01356B1E303441
:103860001C70049A059B061C0F1C02F0F5F9002839
:1038700000D053E3321C3B1C7249714803F03AFC00
:10388000049A059B02F0E8F9002800D0CBE00B9CDD
:103890002B1B0E9CA3425FDA049805996A4A6B4B76
:1038A00003F096F9684A694B04900591301C391C65
:1038B00003F08EF9061C0F1CC2E718685968221C19
:1038C0002B1C03F085F90B9C0E9D04900591651946
:1038D0001795391C301C03F043FF051C03F074FFDF
:1038E000021C0B1C301C391C03F004FC3035257005
:1038F000179D0134061C0F1CAC4226D10E980B9C60
:10390000574A584B25180498059902F0CDF9021C26
:103910000B1C301C391C02F0B3F9002800D082E0E7
:10392000049A059B4E484F4903F0E4FB021C0B1C14
:10393000301C391C02F090F900280DD06B1E1A784B
:10394000302A00D0EAE21D1CF8E73F4A3F4B03F063
:103950003FF9061C0F1CBCE7149C159D04940595AB
:10396000199B002B00DA9FE0069D0E2D00DD9BE0E9
:103970003D4AEB00D3181C685D6802940395219DB5
:10398000002D14DA089C002C11DC00D08CE1324AA6
:10399000324B0298039903F01BF9049A059B02F03D
:1039A00079F9089F3E1C002800D07FE187E10B9D3C
:1039B000049E059F029A039B301C391C02F098FC60
:1039C00003F0CEFE041C03F0FFFE029A039B03F0FB
:1039D000FFF8021C0B1C301C391C03F08BFB01355B
:1039E000021C201C30300B1C691E08700B98291A11
:1039F0000898814248D1101C191C02F055F9029A0E
:103A0000039B061C0F1C02F03BF900280DD1301C53
:103A1000391C029A039B02F019F9002800D17FE2B9
:103A2000E10702D47CE2119C06946B1E1A78392AB5
:103A300026D10B9CA3421DD01D1CF6E7C046C046F4
:103A4000000000000000F03F0000000000002440E3
:103A50000000000000001C400000000000001440B6
:103A6000000000000000E03FF87A0000E87B000062
:103A70000000C0FC069C3022013406940B9C22708E
:103A80001A7801321A704BE2101C191CC94BC84A33
:103A900003F09EF8C84AC94B061C0F1C02F0D6F86A
:103AA000002800D186E73BE2109D002D31D0209CFC
:103AB000012C0BDC169D002D02D0C1481B1802E022
:103AC000189936235B1A0D9D029C16E0089D0D9CEB
:103AD000013DAC4201DB651B06E00D9C0D952B1BE7
:103AE000129C0025E4181294089C002C03DA02981A
:103AF0000023041B01E0029C089B0299099AC91843
:103B00000291D21807980121099200F07AFE061C52
:103B100002E00D9D029C109E002C0CD0099B002BF6
:103B200009DDA34200DD231C02980999C01AC91AB5
:103B30000290E41A09910D9A002A21DD109B002BB6
:103B400018D0002D10DD311C2A1C079800F0F1FE62
:103B5000061C311C0A9A079800F05CFE0A99071CA3
:103B6000079800F07DFD0A970D98421B08D0079832
:103B70000A9902E007980A990D9A00F0DAFE0A9075
:103B80000798012100F03DFE129D071C002D05DD68
:103B9000391C07982A1C00F0CCFE071C2098002531
:103BA000012810DC0499A9420DD1059A1303AB42F8
:103BB00009D1844B134206D0029D01350295099D1F
:103BC00001350995012512990120002908D03B698A
:103BD00003339B00FB18586800F0CAFD2023181A15
:103BE000099A1F23801818400DD020231B1A042B7C
:103BF00006DD1C23181A029B24181B18029308E0E8
:103C0000042B08D0181C02991C300918099A02913B
:103C1000241812180992029B002B05DD07980A99B7
:103C20001A1C00F0C7FE0A900998002805DD391C0F
:103C30000798099A00F0BEFE071C139900291BD0B3
:103C40000A98391C00F008FF002815DA069A0023AC
:103C5000013A069207980A990A2200F00BFD0C9B84
:103C60000A9010980893002806D0311C07980A2261
:103C7000002300F0FFFC061C089900292ADC209A8A
:103C8000022A27DD002911D1391C07980522089B3B
:103C900000F0F0FC071C391C0A9800F0DDFE00283B
:103CA0000DDC03E00E9F00E000273E1C219C0B9DD5
:103CB000E44306940BE0119D0E9F06953E1C0B9C61
:103CC00031232370069C0B9D013401350694029626
:103CD00000260FE11098002800D1C5E0002C05DD7A
:103CE000311C0798221C00F065FE061C0296002D70
:103CF00012D07168079800F08BFC3269311C0232D7
:103D0000041C92000C310C30FEF768FA0798211C55
:103D1000012200F04FFE02900B9C089D231C013BEA
:103D20005B1909941093391C0A98FFF7B9FA311CF2
:103D30000D90041C0A9800F08FFE391C0C90029A1A
:103D4000079800F0A4FE051CC0683034002805D197
:103D50000A98291C00F080FE089001E001210891DA
:103D6000291C079800F07CFC089B209D2B430DD15B
:103D700004980123034209D1392C44D00C9D002D15
:103D800001DD0D9C3134099D013544E00C9D002D71
:103D900003DA089D002D17DC28E00C9B209D2B43A7
:103DA00029D104980123034225D1F2E7C046C04639
:103DB000000000000000244000000000000000009F
:103DC000330400000000F07F0A990798012200F0F8
:103DD000F1FD391C0A9000F03FFE002802DC05D1FD
:103DE000E10703D5392C0ED00D9C3134099D099A79
:103DF000013514707EE0099D01350C95089D002D5C
:103E00000CDD392C05D1099D099C3923013523701E
:103E10005BE00C9D0134099804706BE00999109ADD
:103E20000C9D0C7091423DD00A990A2200230798FC
:103E300000F020FC029C0A90311C07980A22002303
:103E4000A64204D100F016FC061C029009E000F026
:103E500011FC0299061C0A220798002300F00AFCB4
:103E600002900C9D09955EE70B9D391C0A98FFF79F
:103E700017FA041C30340B9808992C7001352B1A52
:103E80008B4207DB0B1E00DC01230B9A0296D51830
:103E9000002607E007980A990A22002300F0EAFBAF
:103EA0000A90E2E70A990798012200F083FD391C85
:103EB0000A9000F0D1FD002807DC15D1E30704D4F7
:103EC00012E00B9CA34205D01D1C6B1E1A78392AE8
:103ED000F7D006E0069C3123013406940B9C237036
:103EE00008E001321A7005E06B1E1A78302A01D101
:103EF0001D1CF9E70798391C00F0B2FB029C002C4E
:103F00000ED0002E05D0A64203D00798311C00F039
:103F1000A7FB0798029900F0A3FB01E0119C06940F
:103F200007980A9900F09CFB00232B70069B229CAB
:103F300001332360249C002C03D0256001E002485B
:103F400000E00B981BB0F0BDCC7A0000C046C04624
:103F5000F8B50D1C041C00F058FB204E204AB36835
:103F60005F6803239F437D1BAD182D0B1D4B013D47
:103F70002D039D4204DC201C00F048FB00202BE0B8
:103F8000201C002100F05AFFB268D3199842F2D1E8
:103F90006942201C00F052FF013010D1201C00218A
:103FA00000F04CFFB368C21A0F2AE4DD0E4909681D
:103FB000401A0E49086001210A435A60DBE7B368E2
:103FC0007F1B012637435F60084B201C1A68551B76
:103FD0001D6000F01BFB301CF8BDC046B40400207F
:103FE000EF0F0000FF0F0000BC0800202809002090
:103FF000F7B5041C0D1E00D1AAE000F006FB291C39
:1040000008394F6801203B1C8343C81846680322C7
:104010009643504A9568AC4601252F4060451AD119
:10402000F318002F06D10868091A8D681B18C86894
:10403000E86085600120184348609160464A126834
:10404000934204D3454B201C1968FFF781FF201CC5
:1040500000F0DCFA7CE0002546600195AF420DD10E
:104060000F680825C91BDB198F68AD18AF4203D054
:10407000CD68FD60AF6001E00125019587197D687D
:1040800001273D4210D1019D9B198668002D08D162
:10409000334DAE4205D1F160B1600197CE608E60C4
:1040A00002E0C068F06086600120061C019D1E438E
:1040B0004E60CB50002DCAD12A4DAB420DD8DB0843
:1040C0009D10A8405568DB0028435060D2189368C3
:1040D000CA608B609160D960B9E75D0A042D02D88F
:1040E0009809383016E0142D02D8281C5B3011E0F6
:1040F000542D02D8180B6E300CE0AA2040008542E7
:1041000002D8D80B773005E0174E7E20B54201D893
:10411000980C7C30C6009619B568B54201D02A1CAF
:104120000BE0801001238340181C53681843506033
:104130002A1C08E09268B24204D0556803208543E7
:10414000AB42F7D3D568CD608A60A960D1607EE7C5
:10415000F7BDC046B4040020C00800202409002098
:10416000BC040020FF0100005405000038B5141CF9
:104170000C4D01D1281C13E0101C0B4900F070FEFF
:104180000028F7D0201C291C00F06AFE0028F1D07E
:10419000201C064900F064FE43425841404228403A
:1041A00038BDC046787A0000DB7A0000E27A000071
:1041B0000048704738040020014B186A7047C04619
:1041C00038040020014824307047C04638040020DD
:1041D00000207047014844307047C0463804002032
:1041E00008B50A1C0349031C0868191CFFF7BEFF29
:1041F00008BDC04608000020014844307047C04652
:1042000038040020F0B50B1C87B00B330390162B3D
:1042100004D907229343019302D504E010240194AA
:10422000019D8D4203D2039E0C233360CAE10398A3
:1042300000F0EBF9F823019FFF33B04C9F4217D8F1
:10424000FA08D300E318DD689D4205D12B1C6D6987
:10425000083302329D424AD068680323EA68A9689D
:1042600098432B18CA609160596801220A435CE0A8
:10427000019D3F226B0A1ED0042B02D8AA093832B6
:1042800019E0142B02D81A1C5B3214E0542B03D80B
:10429000019E320B6E320EE0AA225200934203D8E6
:1042A000019FFA0B773206E095497E228B4202D8B5
:1042B000019DAA0C7C32D300E318DD689D4215D025
:1042C0006E680321019F8E43F01B0F2801DD013A28
:1042D0000CE0002808DBEB68AA68D3609A60AB1991
:1042E00058680122024320E0ED68E7E70132201C14
:1042F00025690830854261D069680323019E99438E
:104300000B1C891B0F2908DD0122AB1916436E60B7
:1043100063612361D86098607FE06061206100295B
:1043200005DBEB185F6801223A435A6057E1754993
:104330008B420BD8DB08991001208840011C606873
:10434000DB000143E3186160996833E0590A0429EE
:1043500002D89809383016E0142902D8081C5B30BE
:1043600011E0542902D8180B6E300CE0AA2040004E
:10437000814202D8D80B773005E0614E7E20B142F1
:1043800001D8980C7C30C600A619B168B1420BD197
:10439000801001238340181C6368184360600B1C65
:1043A00008E08968B14204D04F6803208743BB42CC
:1043B000F7D3CB68EB60A9609D60CD6093100121BD
:1043C00099400B1C61688B4257D8194205D10320D4
:1043D00082435B0004321942FBD0D700E7190497EF
:1043E000381C9446C56800E0ED680321854225D05D
:1043F0006E68019F8E430296F11B0F2911DD012289
:10440000381C10436860AE68E868EB19F060083447
:104410008660E360A360DC609C600A435A60595088
:10442000DDE00029E0DB029801232E187168AA68FC
:104430000B437360EB68D3609A60D0E00125AC4415
:10444000664608300E42CDD1970703D162689A4381
:10445000626006E00499013A0868083904908842CD
:10446000F2D061685B008B4207D8002B05D0624612
:104470001942B2D104325B00FAE7A66803237168DF
:10448000019D99430291A94203D34B1B0F2B00DDE1
:104490009AE0029F1C4AF71905971C4F019D386846
:1044A00092682B18013201D1103303E018495B18D0
:1044B0001B0B1B0304930398049900F0BFFC051C1D
:1044C000421C71D0059B984201D2A6426CD17968FA
:1044D000049843187B60059FBD4208D12A0506D188
:1044E000029DA3680122441914435C6052E0064A0D
:1044F000064F906801300DD195600FE0B4040020A4
:1045000054050000FF010000B40800202409002029
:104510000F100000059C2A1B9B187B6007230024BA
:104520002B40A34202D00824E41A2D1904998020BC
:104530006B1840011B0524181B0DE41A0398211C5D
:1045400000F07CFC421C01D1281C00247968401B2F
:1045500063187B600419254B012214439D606C6035
:104560009E4217D0029C0F2C01D86A601CE0029B6F
:10457000756807210C3B8B432A401A437260052162
:10458000F218516091600F2B04D9311C0831039847
:10459000FFF72EFD164A5368D16A8B4200D9D362C9
:1045A000166BB34200D91363104B019F9B685A6886
:1045B00003239A43D31BBA4201D30F2B04DC039885
:1045C00000F024F800200FE00848019A85680121D6
:1045D000019C0A436A600B432A1982605360039866
:1045E00000F014F8281C083007B0F0BDB404002017
:1045F00024090020C9B28218904204D003788B426B
:1046000002D00130F8E70020704770477047000083
:10461000C36C70B5041C0D1C002B08D0E36CAA0001
:104620009A18106800280BD00368136014E0042166
:10463000212201F09DF8E0640028EFD100200EE077
:1046400001210E1CAE40721D9200201C01F090F85A
:104650000028F3D04560866000220261C26070BD10
:10466000002906D04A689300C26CD3181A680A6001
:1046700019607047F7B50C1C1E1C0D69071C14311E
:1046800000230868013380B2504380198446060C29
:104690000868000C50433018060C00040190604676
:1046A00080B2844601988444604601C1AB42E8DB95
:1046B000002E1BD0A3689D4212DB6168381C0131BB
:1046C000FFF7A6FF2269211C023201900C319200F3
:1046D0000C30FDF783FD211C381CFFF7C1FF019C46
:1046E0002B1D9B00E31801355E602561201CFEBD7B
:1046F000F7B5061C181C0F1C083009210193141C67
:1047000001F034FA01230021984202DD5B000131FF
:10471000FAE7301CFFF77CFF089B011C4361012373
:104720000361092C12DD3B1C093300931D1C3F194A
:104730002B78301C303B0A22FFF79CFF0135011C0F
:10474000BD42F5D1009B1F19083F01E00A3709243B
:10475000251C019B9D4209DA3B1B5B5D301C303BF5
:104760000A22FFF787FF0135011CF2E7081CFEBD96
:104770000022031C010C914201D103041022190EE6
:1047800001D108321B02190F01D104321B01990F0C
:1047900001D102329B00002B04DB2020590002D5FE
:1047A000501C00E0101C704703680722011C1A40CF
:1047B0000BD001220020134222D10220034201D05B
:1047C000D3401BE09B080B601AE098B2002801D18F
:1047D0001B0C1022D8B2002801D108321B0A18077E
:1047E00001D104321B09980701D102329B08D80776
:1047F00004D45B082020002B02D001320B60101C77
:10480000704710B50C1C0121FFF702FF0123446122
:10481000036110BDF0B50C1C151C096912698BB041
:10482000914202DA231C2C1C1D1C27692E69A268E8
:10483000BB1961680293934200DD0131FFF7E8FE86
:10484000031C03900298143382009A18191C914299
:1048500002D2002001C1FAE714351434BF00AC467F
:10486000B600E7196644049407970996099EB44573
:1048700056D265462D880595002D1FD0049C191C25
:1048800000200F6840CCBFB2059D0697B7B26F43BA
:10489000069D360CEF193F1808680891050C05981D
:1048A0004643380CAD192D18280CBFB22D043D43DA
:1048B00020C1079DAC42E4D3089E706067467D88A6
:1048C000002D22D000261868049C191C0196278808
:1048D00080B26F430697069E4F880591F619019F97
:1048E000F71906973F043843086001CC8F88000C05
:1048F0006843C019069F04313E0C8019079F060CBF
:104900000196A742E3D8059948600425AC445B1999
:10491000ACE7043A1068002805D1029F013F0297D6
:10492000029D002DF5DC039F029E381C3E610BB0FA
:10493000F0BD0323F7B51340051C0E1C171C002BFC
:1049400007D01A4A013B9B009A580023FFF792FEBA
:10495000061CBF1028D0AC6C002C0ED1281C1449AA
:10496000FFF74FFF0023A864041C036005E07F10DD
:104970001AD0206800280ED0041CFB07F7D5311C84
:10498000221C281CFFF746FF311C0190281CFFF752
:1049900067FE019EEBE7281C211C221CFFF73AFF53
:1049A000002320600360E7E7301CFEBDE87A0000CA
:1049B00071020000F0B50C1C85B003902069551100
:1049C0002818029049680130A368171C0090009ACB
:1049D0009A4202DD01315B00F9E70398FFF718FE08
:1049E000021C061C14320023AB4204DA990000209A
:1049F00050500133F8E7EB43DB171D40AD00206951
:104A00005519221C143283009B189C461F231F40FB
:104A100014D02023DB1B019300231068291CB8400D
:104A2000034308C508CA0198C3409445F5D84B60B4
:104A3000002B07D002990231009103E008CA08C593
:104A40009445FBD8009B0398013B3361211CFFF781
:104A500007FE301C05B0F0BD10B502690C69031CDF
:104A6000101B13D11A1CA00014321431131809188A
:104A7000043B04391C680868844204D084428041A5
:104A80000123184302E09342F2D8002010BDF0B594
:104A9000071C85B0081C0D1C111C141CFFF7DCFF43
:104AA000061E07D1381C311CFFF7B2FD012303613C
:104AB000466150E0002801DB002603E02B1C0126A4
:104AC000251C1C1C6968381CFFF7A2FD2A692B1CD9
:104AD00014339100591802912169251C143589005D
:104AE0006918041C0391C6601434002140CB80CDAA
:104AF000B446B6B27118BEB28E1B614601963F0C29
:104B00000E0CF71B019E043431147F1839143F0436
:104B10000097019F261FB446BEB2009F37436646EA
:104B20003760039FBD42E1D3029E251CB3420BD2E6
:104B300080CBBDB26D182E143F0CF6193114ADB2F6
:104B40003604354320C4EFE7043D2F68002F01D120
:104B5000013AF9E7026105B0F0BD0E4B0E4A0B4079
:104B60009B1810B5002B01DD191C09E05B421B15D9
:104B700000200021132B05DC80221203111C194197
:104B8000002006E00122322B02DC3324E31A9A4093
:104B9000101C10BD0000F07F0000C0FC0369F7B5D9
:104BA000061C14369B00F3181C1C043C25680F1CC3
:104BB000281C0193FFF7DCFD20231B1A3B601F49D3
:104BC0000A2813DC0B231B1A2F1CDF409C460B1CEE
:104BD0003B430021B44202D901990839096864466F
:104BE000E140153085400A1C2A4322E00027B442E8
:104BF00002D9019C083C27680B235B421B189C468A
:104C0000002B13D02B23181A63469D4029433D1CCB
:104C10000B1CC5402B430021B44201D9043C216840
:104C2000C1406446A7400A1C3A4302E00B1C2B43D8
:104C30003A1C101C191C03B0F0BDC0460000F03F28
:104C4000F7B501211D1C141CFFF7E2FC6F002B03BC
:104C5000061C1B0B7F0D02D08022520313430193CD
:104C6000002C19D068460094FFF79EFD009A00289A
:104C700009D0019B20211C1C091A8C402243C340EF
:104C80007261019300E07261019CB461634263410F
:104C90000224E41A346107E001A8FFF785FD0199B9
:104CA0000124716134612030002F09D00D4A089C25
:104CB000BF183F1827603523099C181A20600EE0A2
:104CC0000949089A40180949106063189B00F318B5
:104CD0005869FFF74DFD6401099A241A1460301CCD
:104CE000FEBDC046CDFBFFFFCEFBFFFFFFFFFF3F3A
:104CF000F7B50E1C6946071CFFF750FF041C0D1C7E
:104D0000301C01A9FFF74AFF021C0B1C00980199F7
:104D10003F69401A31698446791A49016144002982
:104D200002DD09054D1901E009055B1A201C291C4B
:104D300001F0DEFA03B0F0BD10B5041E172C05DC3F
:104D40000B4BC4001C192069616908E0054904483F
:104D5000054A064B013C01F03BFF002CF8D110BD89
:104D6000000000000000F03F0000000000002440B0
:104D7000E87A0000013910B5131C4911126901319C
:104D800089001433920041189A18934202D210CB32
:104D900010C0FAE7884202D2002308C0FAE710BD2B
:104DA000021C006910B514324B1183420DDC0DDA80
:104DB0001F2001400AD098008458201CC840884019
:104DC000011C0120A1420CD100E0031C9B00D31860
:104DD000934205D9043B19680029F9D0012000E06D
:104DE000002010BDC046C04630B50B1C041C021C80
:104DF0001C430220002C17D080242406A34201D19A
:104E0000002A11D0094859004908094C0D180420FE
:104E1000A54209D9074C0320A14205D9064C002020
:104E2000A14201D15042504130BDC0460000F0FFC8
:104E3000FFFFDF7FFFFF0F000000F07F38B5074C5A
:104E40000023051C081C2360FCF76EFB431C03D1E8
:104E50002368002B00D02B6038BDC046E00900203D
:104E600002780B7801300131002A01D09A42F7D044
:104E7000D01A70470023C25C0133002AFBD1581EB0
:104E800070470000F0B587B0039010680C1C0490C8
:104E90009068161C002803D0002102910D1C1EE012
:104EA000506074E0A768BD4263D39022A389D2000A
:104EB00013421ED1BD425CD33A1C0299206800F017
:104EC00083FCA1682268CB1BA360B068029BD71942
:104ED0005B19451B27600293B5604CD00025002D5F
:104EE000E0D1049A049B12685D680833029204932F
:104EF000F5E7216920680322401A05906069424362
:104F0000D00F821852100192059A0198013252195D
:104F1000904200D2019203985A0513D50199FFF7E8
:104F200071F9071E03D103980C23036026E0059A4C
:104F30002169FDF753F9A289164B134080221343D0
:104F4000A3810CE0019A00F059FC071E07D12169EA
:104F50000398FFF74DF803990C230B600EE0059AB8
:104F6000019B27616361BF189B1A2760A3602F1CF8
:104F7000A0E72F1CA0E77560281C08E0A389402249
:104F80001343A38101200023B3607360404207B044
:104F9000F0BDC0467FFBFFFFF0B51C1C8B89B1B094
:104FA000079005910892180612D5096900290FD1BA
:104FB00007984021FFF726F9059F386038610028DF
:104FC00003D1079F0C233B60CBE3059F40237B610C
:104FD000002320AD1395159314930E930C93089E04
:104FE0003378002B03D10898371A04D11CE0252B05
:104FF000F9D00136F4E7159A0899BB181593149B5C
:10500000296001336F601493072B01DC083508E039
:105010000798059913AAFFF735FF002800D09BE3F6
:1050200020AD0C9BDB190C933378002B00D18BE364
:105030006946002247310A7001214942731C0491DC
:105040000B92161C5F1C1B780897582B70D038DC0D
:105050002E2B00D17EE01CDC2A2B71D006DC202B0D
:105060006BD0232B00D014E2012371E02B2B0DD148
:105070001A1C09E0231D24680494002C72DA1C1CFD
:1050800001235B4208910493089BDBE72D2B5ED044
:10509000FFE1392B06DC312B7ADA302B00D0F8E136
:1050A000802355E04F2B00D1DFE0552B00D122E1CA
:1050B000442B00D0EDE16B4647331A7010231E439A
:1050C00093E06E2B00D1B7E00CDC682B73D004DCCE
:1050D000632B7DD0642B27D0DBE1692B24D06C2B94
:1050E0006BD0D6E1712B71D014DC6F2B00D1BEE0F8
:1050F000702B00D0CDE12168002212AB0291C04F8D
:105100003021039219700222782116435970043419
:105110000E973FE1752B00D1EFE0782B00D10BE12A
:10512000732B00D0B5E1C6E06B4647331A705CE0E4
:10513000694647310A70B34F02E1002A98D0A3E7CD
:10514000276804340B97002F9EDA7F420B970423C5
:105150001E4399E7089F08993B7801312A2B89D093
:10516000002002E01C1C08918EE71F1C303F0891B4
:10517000092F05D80A2358430B78C0190131F4E7E9
:105180000490002800DB60E70121494204915CE7BC
:1051900000270B970B9F0A217943089F303BCB18C0
:1051A00001370B933B1C013B1B780897191C3039C6
:1051B0000929EFD949E74023CAE7089F3B786C2BC0
:1051C00002D10137089701E01023C1E72023BFE790
:1051D00020686A4616AB0027473201211870177005
:1051E000043404910997069363E1B20609D5E31DDF
:1051F000072293431C1C18685968083402900391D5
:105200000AE0231D2268F10602D4770600D512B207
:105210000292D21703921C1C0398002800DBBEE008
:1052200002980399002342428B41029203936B46FA
:105230002D2247331A70B2E06B4647331A70231D94
:10524000B10605D50C9F2268F917176051600AE076
:10525000F00605D4700603D522680C9F178002E083
:1052600022680C9F17601C1CB9E610231E432022E5
:1052700032400AD0E31D0722934318685968029010
:1052800003911C1C0834002284E010203040211DB2
:10529000002804D02468039202940C1C7AE0402376
:1052A000334003D024880390029402E024680393DF
:1052B00002940C1CE7E72368049F06936B460022C8
:1052C000473304341A7097420EDB111C06983A1CBF
:1052D000FFF790F9002800D1EAE00699401A0490FF
:1052E000B84205DD049703E00698FFF7C3FD04907C
:1052F00000270997DDE010231E432022324009D009
:10530000E31D072293431C1C186859680834029057
:1053100003910FE010213140231D002906D14022C6
:10532000324003D024880391029402E0246803925F
:1053300002941C1C01222DE069464731304F0A704F
:1053400020210E97314009D0E21D07218A43141C09
:10535000106851680834029003910FE0102030402B
:10536000221D002806D14021314003D0248803901B
:10537000029402E0246803910294141C0222F107B3
:1053800008D50299039F394304D012A93020087030
:105390004B7016436B4600214733197000E0012221
:1053A000049F002F01DB80239E43029B039803434D
:1053B00002D1049F002F5BD06F467F37012A23D094
:1053C000022A3FD002980723034030330399029A00
:1053D00006973B70039F4807D108FA0808430392D9
:1053E0000290021C069F0398013F0243EAD1F10795
:1053F00048D5302B46D0302206973A7042E0C0465E
:10540000BB7A0000AA7A0000039A002A04D1029B0A
:10541000092B01D8303333E0029803990A22002384
:105420000697FCF76BFA0298039930323A700A2219
:105430000023FCF763FA031C02900391013F0B4326
:10544000EAD11FE00298039A0E990F230340CB5C28
:105450001107020903983B7003091143039302915A
:105460000B1C039906970B43013F002BEAD109E07F
:1054700020AF0697002A05D1F00703D5013F30235E
:105480003B700697049F20AB0997069FDB1B049394
:105490000FE0694647310A70002B00D154E116AA8B
:1054A0000027012013700F7004900997069200E006
:1054B0000990049F09980D97874200DA0D906B467A
:1054C00047331B780D9F5A1E9341FF180223334028
:1054D0000D970A9301D002370D97842333400F9321
:1054E00033D10B980D99471A002F2EDD9F4B2B605F
:1054F000102F16DD10236B60159B10331593149B32
:1055000001331493072B01DC083508E0079805994F
:1055100013AAFFF7B7FC002800D01DE120AD103F13
:10552000E4E7159A149B6F600133BF181597149325
:10553000072B01DC083508E00798059913AAFFF747
:10554000A1FC002800D007E120AD6B4647331A7854
:10555000002A15D02B6001236B60159B0133159336
:10556000149B01331493072B01DC083508E00798DE
:10557000059913AAFFF786FC002800D0ECE020ADC7
:105580000A9F002F16D012AB2B6002236B60159B75
:1055900002331593149B01331493072B01DC083558
:1055A00008E00798059913AAFFF76CFC002800D0C3
:1055B000D2E020AD0F9F802F34D10B980D99471A60
:1055C000002F2FDD694B10332B60102F16DD1023B9
:1055D0006B60159B10331593149B01331493072BA9
:1055E00001DC083508E00798059913AAFFF74AFC83
:1055F000002800D0B0E020AD103FE3E7159A149BDF
:105600006F600133BF1815971493072B01DC083521
:1056100008E00798059913AAFFF734FC002800D08A
:105620009AE020AD099B04981F1A002F2DDD4F4BE7
:1056300010332B60102F15DD10236B60159B10337A
:105640001593149B01331493072B01DC083507E0F5
:105650000798059913AAFFF715FC00287CD120AD07
:10566000103FE4E71599149B6F6001337F1815977D
:105670001493072B01DC083507E00798059913AA56
:10568000FFF700FC002867D120AD069F15982F601A
:10569000049F3B181593149B6F6001331493072BE1
:1056A00001DC083507E00798059913AAFFF7EAFB24
:1056B000002851D120AD71070BD40D9B0B9FBB422D
:1056C00000DA3B1C0C9F1598FF180C97002837D068
:1056D0002FE00B9F0D983E1A002EEEDD234B2B6022
:1056E000102E15DD10236B60159B10331593149B42
:1056F00001331493072B01DC083507E0079805995F
:1057000013AAFFF7BFFB002826D120AD103EE5E726
:105710001599149B6E600133761815961493072B18
:10572000CBDD0798059913AAFFF7ACFB0028C4D07E
:1057300012E00798059913AAFFF7A4FB00280BD1E4
:105740000023149320AD4AE4159A002A04D0079848
:10575000059913AAFFF796FB059F0C98BB8959067C
:1057600001D50120404231B0F0BDC046107C0000A0
:1057700010B55143FEF746FD041E23D0031C083B21
:105780005A6803239A43043A242A18D8031C132A7C
:1057900010D900210160416008331B2A0AD98160B9
:1057A000C160242A02D0031C103303E0031C0161F2
:1057B0001833416100221A605A609A6002E00021A9
:1057C000FCF715FD201C10BD70B5814201D30023EC
:1057D0000CE08C18A042FAD28518131C013B0BD3A5
:1057E00051426618F65C6918CE54F7E7934203D02D
:1057F000CC5CC4540133F9E770BD0000F0B587B04C
:1058000003900C1C059203D1111CFEF7FBFC95E1E3
:10581000271C0398083FFEF7F8FE7D6803232E1C23
:105820009E43059B01960B33162B04D90722934305
:10583000029302D505E010260296029E0598864244
:1058400004D2039C0C232360002077E1019E029880
:10585000864200DB4EE1BA49BB198A685E6894460D
:10586000934206D00122301C904318184068104221
:1058700024D10322301C019E90438219029E63456D
:1058800014D11036B2421BDB0298231C3E188E60E6
:10589000121A01210A437260083B5A681140014301
:1058A00059600398FEF7B2FE201C47E1B24207DBC5
:1058B000D9689B680192D9608B601BE10020031CB2
:1058C000E90700D5C5E0221C083A156803227D1BB4
:1058D0006E689643019AB618002B00D183E0301809
:1058E0000490634544D1029B103398427BDBAA6845
:1058F000EB682E1CD3609A60019A0836043A242A79
:1059000024D8331C132A1AD92368AB606068E86076
:105910001B2A03D82B1C1033083410E0A16829611E
:10592000E3686B61242A03D02B1C1833103406E083
:1059300020692B1CA86161692033E9611834226851
:105940001A6060685860A4689C6003E0301C211CE9
:10595000FFF73AFF029C7A4B04982A199A60071BBA
:1059600001231F43576069680B4023436B60BCE011
:10597000029A904237DBDA689B68281CDA609360F1
:10598000AA68EB680830D3609A60019A043A242A26
:1059900024D8132A19D92368AB606668EE601B2AE5
:1059A00002D80830083410E0A0682861E168696115
:1059B000242A03D0281C1830103406E02269281C41
:1059C000AA6163692030EB6118342668066061685B
:1059D0004160A4688460049C019434E0211CFFF7BA
:1059E000F3FE049E2EE00298864232DBAA68EB6842
:1059F000281CD3609A60019A0830043A242A24D8DB
:105A0000132A19D92168A9606368EB601B2A02D8A0
:105A10000830083410E0A0682861E1686961242A30
:105A200003D0281C1830103406E02269281CAA6113
:105A300063692030EB61183421680160626842605C
:105A4000A468846001962F1C54E0211CFFF7BCFE63
:105A5000F8E703980599FEF7D5FB061E45D0221CF2
:105A6000083A52680121031C8A43083BBA18934242
:105A700006D15B68019C03229343E418019439E04A
:105A8000019A043A242A29D8132A1ED920683060A2
:105A9000616871601B2A04D8331C221C0833083249
:105AA00015E0A368B360E068F060242A04D0331CDA
:105AB000221C103310320AE02169331C3161606905
:105AC000221C18331832706101E0031C221C11687B
:105AD00019605068586092689A6002E0211CFFF7D4
